H20240115ACME CORPORATION      MEMBER DATA EXPORT          
D MBR-10001SUB-10001SMITH               JOHN                19850315M PLANHMO001GRP-001001HEALTH    20240101          
D MBR-10002SUB-10001SMITH               JANE                19880622F PLANHMO001GRP-001001HEALTH    20240101          
D MBR-10003SUB-10001SMITH               TOMMY               20150410M PLANHMO001GRP-001001HEALTH    20240101          
D MBR-20001SUB-20001GARCIA              MARIA               19920517F PLANHMO001GRP-002001HEALTH    20240101          
D MBR-20002SUB-20001GARCIA              CARLOS              19901103M PLANHMO001GRP-002001HEALTH    20240101          
D MBR-30001SUB-30001JOHNSON             ROBERT              19750820M PLANPPO002GRP-003001HEALTH    20230701          
D MBR-30002SUB-30001JOHNSON             PATRICIA            19781201F PLANPPO002GRP-003001DENTAL    20230701          
T000000720240115                                                                               
